:100100002A0600F90000000000000000CD4B03CDDE
:100110009E07C32B041D389E061D38883FC3270445
:10012000C32B04C34604C38E04C37204C31A05C39D
:10013000FB0CCD960DFE38CA7B0CE608C482117705
:1001400023772377D1C1C9CDC604C3DE04E15E2382
:100150005623E52A1501197E23666FC9E15E23E562
:1001600016002A1501197E23666FC9E15E23562306
:10017000E52A1501196EC9E15E23E516002A15016D
:10018000196EC9E15E235623E5EB097E23666FC92C
:10019000E15E23E5EB2600097E23666FC92101009D
:1001A000C82BC9210000C823C9210100D82BC921AF
:1001B0000000D823C9210100F02BC9210100F82B30
:1001C000C9110100C81BC9110000C813C9110100E1
:1001D000D81BC9110000D813C9110100F01BC911A7
:1001E0000100F81BC97DBBC07CBAC9EB7ABCC07BDF
:1001F000BDC9EB7CBAC07DBBC9EB7CAAF2EC017A2D
:10020000B7F037C9EB7CAAF2F3017CB7F037C97AB3
:10021000F5CD5A02EBCD5A02EBCD2902F1B7F07CB5
:100220002F677D2F6F23C900007CB5C8D5E5CD8928
:1002300002D1CD6B027C2F677D2F6F23D119C9AFFF
:10024000327105CD5A02EBCD5A02CD6B023A7105DF
:100250001FD07C2F677D2F6F23C97CB7F02F677D60
:100260002F6F233A71053C327105C9C5CD7102C1AA
:10027000C9444D21000078B1C8781F47791F4FD27B
:10028000830219EB29EBC376027CB5C8C5CD940275
:100290006069C1C906017CB7FAA0022904C39602AD
:1002A000EB78010000F5CDDD02DAB70203D57A2F35
:1002B000577B2F5F1319D1AF7A1F577B1F5FF13D1B
:1002C000C8F579174F781747C3A602AF327105CD2D
:1002D0005A02EBCD5A02EBCD8902C34D027CBAD84B
:1002E000C07DBBC9EB1C1DC8AF7C1F677D1F6FC3E2
:1002F000E602EB1C1DC829C3F4027C2F677D2F6F1B
:1003000023C97A2F577B2F5F13C9210400397E231D
:10031000666FC9210600C30D03210800C30D032128
:100320000A00C30D03210C00C30D03210E00C30DF1
:1003300003211000C30D03119F0521040039C506D8
:100340000E7E12231305C24103C1C9E122730521A8
:100350006007E52A1B0122B30521E80322B5052128
:10036000DC592297053EDB32AD053ED332B0053E67
:10037000C932AF0532B2052100CC228F0521100011
:100380002293052140002291052100042295050EAB
:100390000BCD0500E601CA9E030E01CD05002180AC
:1003A0000011DF06462378B7C2B103110100C30F65
:1003B000047E12231305C2B103AF1221DF0611011F
:1003C00000016207AF3272057E23FE20CAC803B760
:1003D000CA0F04FE22C2DE03327205C3DF032B7D87
:1003E00002037C0203137E23B7CA0F04C5473A7287
:1003F00005B778C1CA0304FE22C2E603AF32720514
:100400002B7723FE20C2E6032B360023C3C803D577
:10041000060821D70636002305C21504AF3277053A
:100420003278052A7305E921FFFFC93E0FF5CD7229
:1004300004DA3C046F2600E5CD4604E1F13DFE07F9
:10044000C22D04C30000CD6005CD0A03CD7204DACD
:1004500027047EE604CA6804E5CD1303C5CD1A055A
:10046000EB0E10CD0500C1E13600FEFF210000C0FB
:100470002BC9CD600557D608D8FE083FD8D55F16E2
:100480000021D706197EE60137D17AC83FC9CD6071
:1004900005C5CD0C050608E5131A1BFE3A3E00C241
:1004A000AA041ACD0305D64013137723CD47011AAA
:1004B000FE2EC2B604130603CDC604AF7711140096
:1004C000197723C33F01C51AFE2A3E3FCAE9041A21
:1004D000CDF104DAE70477231305C2C704C11ACDAE
:1004E000F104D813C3DE043E20772305C2E904C11A
:1004F000C9CD0305FE2E37C8FE3A37C8FE7F37C880
:10050000FE21C9FE61D8FE7BD0D620C91B131AFE7E
:1005100020CA0D05FE09CA0D05C9C5CD6005B74F36
:10052000C24505060811D70621B7050E081AE601CF
:1005300079C23605C1C9D511240019D1130C05C2E1
:100540002D0537C1C9CD7204DA4205D6086F2600E1
:100550002929545D29292919EB21B7051979C1C920
:10056000D5C5F5E50E1A118000CD0500E1F1C1D128
:10057000C9000000000000000000000000000000B2
:100580005635F1C9E53A193DE611C262233A193DE3
:10059000E602C2F9233A243DE601CA3223CD762B86
:1005A0003AE03CB7C2F222CDEA28C2C3223E36CDA1
:1005B0008B353A263DCD8B35C31F232A263D7CB58E
:1005C000C2D422114D31CDBF35C31F233E36CD8B52
:1005D000353A263DCD8B353E23CD8B353E36CD8B02
:1005E000353A273DCD8B35C31F232A263D22FC3CBF
:1005F000CDEA28C216233E1ECD8B353A263DCD8B43
:10060000353E73CD8B353E4032193DC31F23115209
:1006100031CDBF35C30E23CDD128C22C233A1D3D89
:100620003D321D3DE1F1CD0129C9CDEA28C240236B
:100630003E73CD8B35C30E23CD9828C25923115854
:10064000313AE03CB7CA5323115D31CDBF35C30EFB
:1006500023118832CDBF35C30E232A1B3D22FC3C1B
:100660002A263D22FE3C3A243DE601CAC3233AE055
:100670003CB7C2A423CDEA28C297233E3ECD8B359A
:100680003A263DCD8B35116331CDBF35C31F2311C4
:100690006631CDBF35AF32193DC31F23CDEA28C225
:1006A00097233E1ECD8B353A263DCD8B353E7BCDF7
:1006B0008B35116331CDBF35C30E23CDEA28C2DCA3
:1006C000233A243DE6C0C2B5233E7DCD8B35116370
:1006D00031C39A233A243DE6C0C43B2DCD9828C2AD
:1006E000F3233E26CD8B35AFCD8B35116632C39AC1
:1006F000233A243DE601CA0724CD762BC3A8223A2B
:10070000193DE608C21824CD7F2CCD762BC33223A9
:100710003A243DE6C03EE5CA24243ED5CD8B35CDF6
:10072000762B3ED1CD8B353E4032243DC33223E57E
:100730002A1B3D22FC3CE111E431CDBF353A193D85
:10074000E6FEF61032193DC922FC3C7CB7C2732488
:100750007DB7C26424115B32CDBF35C90606F5F101
:100760001FF5B7CA7A2405C26724F1115B33CDBFE8
:1007700035C9F13E07904705C83E29CD8B35C37F6B
:100780002423CD9E2ACD4429F1F5CD8F2CCDB6045E
:10079000CDCF2CCD762BCD2B34FECACAB124C3AA23
:1007A00007C34730C30E08C3B108C521000039F99B
:1007B000444D2A1501114F0019AF772377CD9001D1
:1007C00004110100CD0402D20908210600097E238C
:1007D000666F23237E23666F6E2600E5CDA107D1C9
:1007E0007CB5C2E807CDA407210600097E23666F09
:1007F00023237E23666F6E260011D0FF19E52A158C
:1008000001114F0019D1732372CDA707C1C9C317B6
:1008100008C33709C33437C5213A08E5CD1108D1DB
:10082000215208E5CD1108D1218408E5CD1108D168
:10083000210100E5CD1408D1C1C955736167653A3E
:1008400020616C69656E73203C64696769743E0D54
:100850000A00093C64696769743E20697320746802
:1008600065206C6576656C206F66206469666669D4
:1008700063756C74792066726F6D203020746F2000
:10088000390D0A00096C6576656C2030206973208B
:10089000746865206561736965737420616E642096
:1008A0006973207468652064656661756C740D0AEF
:1008B00000C3D208C33737C38C09C3CC0DC38A1316
:1008C000C3EB15C3911BC3351CC39820C31522C3AA
:1008D0008626C5210000E5CDB408D1CDB708CDBA34
:1008E00008CDBD08CDC008CDC008CDC008CDC30817
:1008F000CDC608CDC908CD5C01312B2B2B2B7CB587
:10090000CA0609CDCC08CD5C01312B2B7CB5C214B5
:1009100009CDCC08CDCC08CD5C01457CB5C22C09F5
:10092000CD5C01477CB5C22C09C32F09C3E108CDBA
:10093000CF08C3DE08C1C9C33D09C3B527C521FE21
:10094000FF39F9444D6069AF772377210600097EAE
:1009500023666FE5CD900100D1196E7DB7CA83097A
:10096000210600097E23666FE5CD900100D1196E46
:100970002600E5CD3A09D160695E235613722B73C8
:10098000C34B09EB21020039F9EBC1C9C3A109C36B
:100990007630C3C030C3D527C33709C36328C38AA1
:1009A00013C52A1501112D0019AF7723772A1501D8
:1009B00011470019AF7723772A1501114D0019AFA0
:1009C00077237721F30AE52A150111510019E5CDA6
:1009D0008F09D1D121930BE52A150111F30019E5F7
:1009E000CD8F09D1D121330CE52A150111950119BB
:1009F000E5CD8F09D1D121D30CE52A15011137029C
:100A000019E5CD8F09D1D121730DE52A15011162A8
:100A10000519E5CD9209D1D1217A0DE52A150111EB
:100A2000710519E5CD9209D1D121840DE52A150171
:100A300011800519E5CD9209D1D121900DE52A1536
:100A400001118F0519E5CD9209D1D121970DE52A24
:100A50001501119E0519E5CD9209D1D121A20DE50F
:100A60002A150111AD0519E5CD9209D1D121AC0DA1
:100A7000E52A150111BC0519E5CD9209D1D121B4A2
:100A80000DE52A150111CB0519E5CD9209D1D1212A
:100A9000BC0DE52A150111DA0519E5CD9209D1D170
:100AA000CD95092A150111140019E5CD9809D12A0F
:100AB000150111310019AF772377CD9B09CD5C016A
:100AC000317CB5C2CC0ACD9E09C3BD0A2A150111DD
:100AD0002D0019AF7723772A1501112F001936033E
:100AE0002336002A1501113900193616233600C1A4
:100AF000C9C1C9302C302C302C302C302C302C304B
:100B00002C302C302C312C312C312C312C312C31FF
:100B10002C312C312C302C302C302C302C302C30F3
:100B20002C302C302C302C302C312C312C312C31E1
:100B30002C312C312C312C312C302C302C302C30D1
:100B40002C302C302C302C302C302C302C312C31C3
:100B50002C312C312C312C312C312C312C302C30AF
:100B60002C302C302C302C302C302C302C302C30A5
:100B70002C312C312C312C312C312C312C312C318D
:100B80002C302C302C302C302C302C302C302C3085
:100B90002C3000302C302C302C302C302C302C30A1
:100BA0002C302C312C312C312C312C312C312C315E
:100BB0002C312C312C312C302C302C302C302C3052
:100BC0002C302C302C302C312C312C312C312C3140
:100BD0002C312C312C312C312C312C302C302C3030
:100BE0002C302C302C302C302C302C312C312C3122
:100BF0002C312C312C312C312C312C312C312C300E
:100C00002C302C302C302C302C302C302C302C3103
:100C10002C312C312C312C312C312C312C312C31EC
:100C20002C312C302C302C302C302C302C302C30E3
:100C30002C3000302C302C302C302C302C302C3000
:100C40002C302C312C312C312C302C302C302C30C1
:100C50002C312C312C312C302C302C302C302C30B1
:100C60002C302C302C302C312C312C312C302C30A1
:100C70002C302C302C312C312C312C302C302C3091
:100C80002C302C302C302C302C302C312C312C3181
:100C90002C302C302C302C302C312C312C312C3071
:100CA0002C302C302C302C302C302C302C302C3163
:100CB0002C312C312C302C302C302C302C312C3150
:100CC0002C312C302C302C302C302C302C302C3043
:100CD0002C3000302C302C302C302C302C302C3060
:100CE0002C302C312C312C312C302C302C302C3021
:100CF0002C312C312C312C302C302C302C302C3011
:100D00002C302C302C302C312C312C312C302C3000
:100D10002C302C302C312C312C312C302C302C30F0
:100D20002C302C302C302C302C302C312C312C31E0
:100D30002C302C302C302C302C312C312C312C30D0
:100D40002C302C302C302C302C302C302C302C31C2
:100D50002C312C312C302C302C302C302C312C31AF
:100D60002C312C302C302C302C302C302C302C30A2
:100D70002C3000726F6F6B69650065617274686C0E
:100D8000696E6700737061636520636164657400F8
:100D900079656F6D616E006C69657574656E616E05
:100DA0007400636F6D6D616E646572006361707471
:100DB00061696E0061646D6972616C006D6173746C
:100DC000657220617373617373696E00C3E10DC353
:100DD000CA2BC3DF2BC30831C33709C33D2CC3A0C3
:100DE00037C5CDCF0D210000E5210000E5CDD20DA6
:100DF000D1D1CD5C014FE5215112E52A150111F346
:100E00000519E5CDD50DD1D1D12A150111F305195B
:100E1000E5CDD80DD1CD5C012DE5215C12E52A157B
:100E20000111F30519E5CDD50DD1D1D12A15011147
:100E3000F30519E5CDD80DD1CD5C01313E01BDC220
:100E4000480E3E00BCCA870E3E02BDC2540E3E0094
:100E5000BCCA920E3E03BDC2600E3E00BCCA9D0ECF
:100E60003E04BDC26C0E3E00BCCAA80E3E05BDC20B
:100E7000780E3E00BCCAB30E3E06BDC2840E3E00D4
:100E8000BCCABE0EC3C90E216912E5CDD80DD1C3AF
:100E9000C90E219712E5CDD80DD1C3C90E21C512B7
:100EA000E5CDD80DD1C3C90E21F312E5CDD80DD1B2
:100EB000C3C90E212113E5CDD80DD1C3C90E214FD1
:100EC00013E5CDD80DD1C3C90E214600E5210000A0
:100ED000E5CDD20DD1D1CD5C0131110300CDF901A9
:100EE000DAFA0ECD5C012FE5217C13E52A150111FC
:100EF000F30519E5CDD50DD1D1D12A150111F30591
:100F000019E5CDD80DD12A15011145001936372321
:100F10003600CD5C014F110B0019E52A1501113780
:100F20000019D1732372CD5C0137E5CD5C0139D155
:100F3000CD0502D2460FCD5C0139E52A15011137E6
:100F40000019D1732372CD5C014F11050019E52AF8
:100F5000150111490019D1732372CD5C0149110AA1
:100F600000CD0402D2730F2A150111490019360A67
:100F7000233600CD5C014F110200EBCDCB02E52AF8
:100F80001501114B0019D17323722A150111350077
:100F900019AF772377CD5C0135110400CD0402DA57
:100FA0009510210000E5CD5C0137E5CD5C013511E0
:100FB0000200CD3F02D1CDFA0219E5CDD20DD1D13B
:100FC0002A150111330019AF772377CD5C01331156
:100FD0000A00CD0402DA8410CD5C0133E5CD5C015A
:100FE00035D1191101007CA2677DA36FE5CD5C01AD
:100FF00035110200EBCDCB02110200CD3F02D11919
:10100000E5CDDB0DD1218613E5CDD80DD1CD5C0129
:1010100035110B00CD3F02E5CD5C0133D1192929F3
:10102000E52A150111570619D119E5CD5C0137E5FF
:10103000CD5C0135110200CD3F02D1CDFA0219EB92
:10104000E1732372CD5C0135110B00CD3F02E5CD7C
:101050005C0133D1192929E52A150111570619D147
:10106000192323E5CD5C0133110600CD3F02EBE1EE
:101070007323722A1501113300195E235613722B44
:1010800073C3CB0F2A1501113500195E2356137255
:101090002B73C3950F2A15011141001936362336DB
:1010A000002A1501113B0019AF7723772A1501118A
:1010B0003D0019AF7723772A1501113F0019AF774B
:1010C00023772A15011133071936172336002A15FD
:1010D00001113507193648233600CDDE0D111027D2
:1010E000CDF901D2F2102A15011135071936012365
:1010F00036002A150111370719AF7723772A150112
:1011000011390719AF772377CD5C0131110600CD76
:10111000F901D22E11CD4D013507E5CD4D01330733
:10112000E5CDD20DD1D1210700E5CDDB0DD12A15BA
:101130000111330019AF772377CD5C0133E5CD5C26
:101140000149D1CDFA01D26E11CD5C01332929E5D7
:101150002A1501113D0719D119AF7723772A1501F7
:10116000113300195E235613722B73C339112A15DC
:101170000111430019AF7723772A15011147001990
:10118000AF7723772A150111330019AF772377CD75
:101190005C0133110300CD0402DA4212210000E5A4
:1011A000CD5C013311130019E5CDD20DD1D12A1533
:1011B0000111350019AF772377CD5C01351150004F
:1011C000CDF901D23112CD5C013311A200CD6B02F9
:1011D000E52A150111D90219D119E5CD5C0135298E
:1011E000D119E5CD5C013311A200CD6B02E52A15C2
:1011F0000111510019D119E5CD5C013529D1197EB4
:1012000023666FEBE17323727AB3CA1812210800C8
:10121000E5CDDB0DD1C32012218813E5CDD80DD14A
:101220002A1501113500195E235613722B73C3B9A9
:10123000112A1501113300195E235613722B73C343
:101240008F112A150111690719AF772377C1C9C119
:10125000C94C6576656C3A253264200053636F7221
:10126000653A20252D3564200020202020202020D4
:10127000202020202020202042204C204F204F20C2
:10128000442042204120542048202020202020209B
:101290002020202020200020202020202020205737
:1012A0002045202043204F204D2045202049204E1E
:1012B000202050204520412043204520212020206F
:1012C0002020202000542048204520202041204C70
:1012D00020492045204E20532020205320542052C6
:1012E0002049204B20452020204220412043204BF4
:1012F00020210049204E20562049205320492042D9
:10130000204C2045202041204C20492045204E20C3
:1013100020572045204120532045204C2053202198
:101320000020202020202020202020202020204BB2
:10133000204C2049204E204B2045205220202020A8
:1013400020202020202020202020202020200020BD
:1013500020202020542048204520202042204C20BE
:10136000412043204B20202048204F204C20452066
:101370002120202020202020202020004261736591
:10138000733A2025640020002000C39613C3932DD8
:10139000C3C52DC3D02DC5CD5C01312B7CB5C2DFBB
:1013A00013CD4D013507E5CD5C014F114800CDFA55
:1013B0000219D1CDFA01DAC5132A1501113707191F
:1013C00036FF2336FFCD4D013507110100CD040254
:1013D000DADF132A1501113707193601233600CD3C
:1013E0008D137CB5C2E913C1C9CD9013E52A15014F
:1013F00011610519D173CD6B0161052600117F00C4
:101400007CA2677DA36F3E7ABDC212143E00BCCAA7
:10141000D5143E2CBDC21E143E00BCCAD5143E637A
:10142000BDC22A143E00BCCAF1143E2FBDC2361400
:101430003E00BCCAF1143E78BDC242143E00BCCA94
:101440000D153E2EBDC24E143E00BCCA0D153E20E9
:10145000BDC25A143E00BCCA28153E7FBDC26614E8
:101460003E00BCCA41153E1CBDC272143E00BCCA3F
:1014700041153E71BDC27E143E00BCCA41153E03FB
:10148000BDC28A143E00BCCA41153EFFBDC29614BF
:101490003E00BCCA47153E31BDC2A2143E00BCCAC4
:1014A00062153EFFBDC2AE143E00BCCA7D153EFFB4
:1014B000BDC2BA143E00BCCA98153EFFBDC2C614D8
:1014C0003E00BCCAB3153EFFBDC2D2143E00BCCA2A
:1014D000CE15C3E915CD5C01312B7CB5C2E214C336
:1014E000E9152A15011137071936FF2336FFC3E91D
:1014F00015CD5C01312B7CB5C2FE14C3E9152A154C
:1015000001113707193601233600C3E915CD5C01F7
:10151000312B7CB5C21A15C3E9152A1501113707FD
:1015200019AF772377C3E915CD4D0139077CB5C2D3
:101530003E15CD3241113907193616233600C3E95D
:1015400015CD9313C3E915CD5C01317CB5CA531594
:10155000C3E9152A1501113100193601233600C3DC
:10156000E915CD5C01317CB5CA6E15C3E9152A15A4
:1015700001113100193603233600C3E915CD5C0192
:10158000317CB5CA8915C3E9152A15011131001935
:101590003603233600C3E915CD5C01317CB5CAA4FE
:1015A00015C3E9152A150111310019360423360037
:1015B000C3E915CD5C01317CB5CABF15C3E9152A55
:1015C0001501113100193605233600C3E915CD5C2C
:1015D00001317CB5CADA15C3E9152A1501113100AC
:1015E000193606233600C3E915C1C9C3FA15C3DF8E
:1015F0002BC33709C3E52FC33D2CC521FEFF39F9A5
:10160000444DCD4D0139073E17BDC213163E00BCF7
:10161000CA2E163E00BDC21F163E00BCCA2E163E84
:1016200016BDC22B163E00BCCA7616C3A416CD4DFD
:10163000013B07E5211500E5CDEE15D1D121621B57
:10164000E5CDF115D1CD4D013B07E5211500E5CDE7
:10165000EE15D1D121631BE5CDF115D1CD4D013B67
:1016600007E5211500E5CDEE15D1D121641BE5CDAF
:10167000F115D1C3591BCD4D013507232323E52A8D
:101680001501113B0719D1732372CD4D013B07E5BD
:10169000211600E5CDEE15D1D121651BE5CDF11563
:1016A000D1C3DA16CD4D013B07E5CD4D013907E534
:1016B000CDEE15D1D121671BE5CDF115D1CD4D0171
:1016C0003B07E5CD4D01390723E5CDEE15D1D121FD
:1016D000691BE5CDF115D1C3DA162A1501113300C6
:1016E00019AF772377CD5C0133113700CDF901D2E3
:1016F0007F18CD5C01332929E52A150111570619F8
:10170000D1197E23666FE5CD4D013907D1CDE501B5
:10171000C26E18CD5C01332929E52A15011157063F
:1017200019D11923237E23666F23E5CD4D013B0795
:10173000D1CD0502DA6E18CD5C01332929E52A15D1
:101740000111570619D11923237E23666F23232302
:10175000E5CD4D013B07D1CDFA01DA6E18CD5C0124
:1017600033111600EBCDCB0211010019E5CD5C0160
:101770004FE5CD5C0133110B00EBCDCB02D1CD3F5A
:1017800002D119EB6069732372CD5C01312B7CB5FA
:10179000CAA717CD900100E5CD5C014DD1CDFA026D
:1017A00019EB6069732372CD900100110100CD0423
:1017B00002DABB17606936012336002A1501112DA4
:1017C0000019E57E23666FE5CD900100D119EBE1AC
:1017D000732372CDF415CD4D013B07E5CD4D013995
:1017E0000723E5CDEE15D1D1216B1BE5CDF115D148
:1017F000CD5C0131110400CDF901DA0518216D1B12
:10180000E5CDF115D1CD5C01332929E52A1501116A
:10181000570619D11923237E23666FE5CD5C01336A
:101820002929E52A150111570619D1197E23666F5A
:10183000E5CDEE15D1D1210600E5CDF715D12A155C
:101840000111390719AF772377CD5C01332929E5D9
:101850002A150111570619D119AF7723772A1501D7
:10186000114500195E23561B722B73C3591B2A1591
:1018700001113300195E235613722B73C3E5162A28
:10188000150111330019AF772377CD5C0133E5CD16
:101890005C0149D1CDFA01D25219CD4D013907E58C
:1018A000CD5C01332929E52A1501113D0719D1190C
:1018B0007E23666FD1CDE501C24119CD4D013B07B5
:1018C000E5CD5C01332929E52A1501113D0719D120
:1018D0001923237E23666FD1CDE501C24119CD4D79
:1018E000013B07E5CD4D013907E5CDEE15D1D121FD
:1018F0006F1BE5CDF115D1CD4D013B07E5CD4D0178
:10190000390723E5CDEE15D1D121711BE5CDF115B8
:10191000D12A150111390719AF7723772A1501113B
:101920004700195E23561B722B73CD5C01332929A6
:10193000E52A1501113D0719D119AF772377C3594E
:101940001B2A1501113300195E235613722B73C322
:101950008A18CD4D013907111300CDF901DA241A87
:10196000CD4D013907111600CD0402DA241ACD4DF0
:1019700001390711EDFF1911A200CD6B02E52A15FF
:101980000111D90219D119E5CD4D013B0729D11912
:101990007E23666F7CB5CA241ACD4D013B07E5CD89
:1019A0004D013907E5CDEE15D1D1CD5C01312B2BA1
:1019B0007CB5C2C019210800E5CDF715D1C3EE19D9
:1019C000CD4D01390711EDFF1911A200CD6B02E5D4
:1019D0002A150111D90219D119E5CD4D013B07296D
:1019E000D119AF77237721731BE5CDF115D1CD4DFB
:1019F000013907111600CDE501CA0E1ACD4D013B84
:101A000007E5CD4D01390723E5CDEE15D1D121757F
:101A10001BE5CDF115D12A150111390719AF77232F
:101A200077C3591BCD4D0169077CB5CAF61ACD4D58
:101A30000139072B7CB5C2F61ACD4D013B07E5CD28
:101A40004D016707E5CD4D016907D1CDFA0219E5D2
:101A50002A150111330019D1732372E1CD0402D28A
:101A6000F61ACD4D013B07E5CD5C01331107001996
:101A7000D1CDFA01D2F61ACD5C0133E5210100E5A2
:101A8000CDEE15D1D1CD5141E5CDF115D1CD5C01D2
:101A900033E5210100E5CDEE15D1D121821BE5CD45
:101AA000F115D12A150111690719AF7723772A1586
:101AB00001112D0019E57E23666FE5CD4D01650707
:101AC000110300EBCDCB02D119EBE1732372CDF4FE
:101AD00015CD4D013B07E5210200E5CDEE15D1D135
:101AE000218B1BE5CDF115D12A150111390719AF4D
:101AF000772377C3591B2A1501113907195E23561D
:101B00001B722B737AB3C2561BCD4D013B07E521E7
:101B10000100E5CDEE15D1D1218D1BE5CDF115D11B
:101B2000CD4D013B07E5210200E5CDEE15D1D121D8
:101B30008F1BE5CDF115D12A1501112D0019E57E78
:101B400023666FE5CD5C014F23D1CDFA0219EBE19D
:101B5000732372CDF415C3591BEB21020039F9EB45
:101B6000C1C90000007C007C00200020000700208C
:101B700000200020002000203C424F4F4D213E20FD
:101B800007002020202020202020002000200020EE
:101B900000C39A1BC3DF2BC33D2CC5CD4D013707B6
:101BA0007CB5C2A71BC1C92A150111350719E57EED
:101BB00023666FE5CD4D013707D119EBE173237231
:101BC000CD4D013507110100CDF901D2E81B2A15D1
:101BD000011135071936012336002A15011137077F
:101BE00019AF772377C30D1CCD4D01350711480080
:101BF000CD0402D20D1C2A150111350719364823D0
:101C000036002A150111370719AF772377CD5C010C
:101C100031110600CDF901D2331CCD4D013507E558
:101C2000CD4D013307E5CD941BD1D1210700E5CD82
:101C3000971BD1C1C9C3501CC3DF2BC33709C33D98
:101C40002CC30831C3E52FC32B30C3C837C3A0371B
:101C5000C52A150111430019AF772377CD5C0143E5
:101C6000E5CD5C0149D1CDFA01D27A20CD5C0147A6
:101C70007CB5C2771CC1C9CD5C01432929E52A1571
:101C800001113D0719D1197E23666F7CB5C2931CE3
:101C9000C36920CD5C01432929E52A1501113D07BF
:101CA00019D1195E235613722B73CD5C0143292978
:101CB000E52A1501113D0719D1197E23666F111709
:101CC00000CDE501C2511ECD5C01432929E52A154D
:101CD00001113D0719D11923237E23666FE5CD5CE1
:101CE00001432929E52A1501113D0719D1197E2340
:101CF000666F2BE5CD381CD1D1217C20E5CD3B1C76
:101D0000D1CD5C01432929E52A1501113D0719D1DF
:101D100019AF772377CD5C01432929E52A150111F5
:101D20003D0719D11923237E23666FE5CD4D01357B
:101D300007D1CD0502D24E1ECD5C01432929E52AEB
:101D40001501113D0719D11923237E23666FE5CDB7
:101D50004D01350711050019D1CD0502DA4E1ECD12
:101D60005C0131110500CD0402D2851DCD4D013538
:101D700007E5CD4D013307E5CD381CD1D121070052
:101D8000E5CD3E1CD12A1501112F00195E23561BEB
:101D9000722B73214600E5210000E5CD381CD1D11E
:101DA000CD5C012FE5217E20E52A150111F30519EF
:101DB000E5CD411CD1D1D12A150111F30519E5CD8D
:101DC0003B1CD12A1501112D0019E57E23666F11E8
:101DD000E7FF19EBE1732372CD441CCD5C012F7C2E
:101DE000B5C2E71DCD471C211400E5CD4A1CD1CD5D
:101DF0004D013507E5211700E5CD381CD1D12188EB
:101E000020E5CD3B1CD12A15011135071936482391
:101E10003600CD4D1C11C832CDF901D22A1E2A152B
:101E200001113507193601233600CD5C0131110649
:101E300000CDF901D24E1ECD4D013507E521170029
:101E4000E5CD381CD1D1210700E5CD3E1CD1C369B9
:101E500020CD5C01432929E52A1501113D0719D13F
:101E6000197E23666F111300CDF901DAB41FCD5C22
:101E700001432929E52A1501113D0719D1197E23AE
:101E8000666F111700CDF901D2B41FCD5C01432953
:101E900029E52A1501113D0719D1197E23666F1115
:101EA000EDFF1911A200CD6B02E52A150111D9022F
:101EB00019D119E5CD5C01432929E52A1501113D08
:101EC0000719D11923237E23666F29D1197E236632
:101ED0006F7CB5CAB41FCD5C01432929E52A1501E1
:101EE000113D0719D11923237E23666FE5CD5C01CF
:101EF000432929E52A1501113D0719D1197E2366C9
:101F00006F2BE5CD381CD1D1219020E5CD3B1CD1E4
:101F1000CD5C01432929E52A1501113D0719D11985
:101F200023237E23666FE5CD5C01432929E52A152D
:101F300001113D0719D1197E23666FE5CD381CD1FB
:101F4000D1219220E5CD3B1CD1CD5C01432929E56F
:101F50002A1501113D0719D1197E23666F11EDFF76
:101F60001911A200CD6B02E52A150111D90219D170
:101F700019E5CD5C01432929E52A1501113D071911
:101F8000D11923237E23666F29D119AF772377CD0B
:101F90005C01432929E52A1501113D0719D119AF23
:101FA0007723772A1501114700195E23561B722BE0
:101FB00073C36920CD5C01432929E52A1501113D30
:101FC0000719D11923237E23666FE5CD5C014329D0
:101FD00029E52A1501113D0719D1197E23666F2BBA
:101FE000E5CD381CD1D1219420E5CD3B1CD1CD5C71
:101FF00001432929E52A1501113D0719D1197E232D
:10200000666F111700CDE501C230202A1501114776
:1020100000195E23561B722B73CD5C01432929E501
:102020002A1501113D0719D119AF772377C3612014
:10203000CD5C01432929E52A1501113D0719D11964
:1020400023237E23666FE5CD5C01432929E52A150C
:1020500001113D0719D1197E23666FE5CD381CD1DA
:10206000D1219620E5CD3B1CD12A15011143001941
:102070005E235613722B73C35C1CC1C920004261DE
:102080007365733A20256400202020202020200042
:102090002000200020002A00C3A720C3A037C3DFF0
:1020A0002BC30831C33709C521FEFF39F9444D6000
:1020B000693650233600CD4D0169077CB5C22F210A
:1020C000CD9B20E52A150111330019D1732372210C
:1020D0006000CDFA01D22C21CD5C0133113000CD4E
:1020E000F901D200212A1501116907193601233699
:1020F000002A1501116707193601233600C3202174
:102100002A15011169071936FF2336FFCD9001000A
:1021100011F8FF19E52A150111670719D173237208
:102120002A150111650719365A233600C3F821CD47
:102130004D016707E5210100E5CD9E20D1D1CD5CA1
:102140000131110300CD0402DA6A21CD4D0165078A
:10215000110300EBCDCB02E5210122E52A15011187
:10216000F30519E5CDA120D1D1D12A150111F3052F
:1021700019E5CDA420D12A1501116507195E235652
:102180001B722B732A150111670719E57E23666FF1
:10219000E5CD4D016907D119EBE1732372CD4D01F6
:1021A0006707E52A150111330019D1732372D5CDC4
:1021B00090010011F8FF19D1CD0502DACB21CD5CD9
:1021C0000133110100CDF901D2F821CD4D0167078E
:1021D000E5CD4D016907D1CDFA0219E5210100E5F0
:1021E000CD9E20D1D1210C22E5CDA420D12A1501EC
:1021F00011690719AF772377EB21020039F9EBC199
:10220000C920203C3D25643D3E2020002020202088
:102210002020202000C32422C3E52FC32B30C3DF9E
:102220002BC33D2CC5CD5C014123E52A150111418D
:102230000019D1732372213700CDFA01DA9722CD2C
:102240005C01457CB5C24A22C1C92A1501113D0075
:1022500019AF772377CD5C013B7CB5CA8C22CD5C6E
:10226000013F110100CDFA0219E52A1501113F00C5
:1022700019D17323722A1501113D00193601233635
:10228000002A1501113B0019AF772377CD004111CA
:10229000410019AF772377CD5C01412929E52A1543
:1022A0000111570619D1197E23666FE52A15011110
:1022B000330019D1732372210000CD0502D2C3224D
:1022C000C3C622C32522CD5C0133111700CDF9010D
:1022D000DAEE222A1501112D0019E57E23666F1111
:1022E000F6FF19EBE1732372CD1822CD1B22CD5CD2
:1022F000013F7CB5CA1323CD5C01412929E52A158C
:102300000111570619D11923235E23561B722B7313
:10231000C32C23CD5C01412929E52A15011157065B
:1023200019D11923235E235613722B73CD5C0141FF
:102330002929E52A150111570619D11923237E23CE
:10234000666FE52A150111350019D17323727AB32E
:10235000CA8123CD5C0135E5CD5C014D114B00CD2B
:10236000FA0219E5CD5C014F110300CD3F021102C5
:1023700000EBCDCB02D1CDFA0219D1CDFA01DA8D25
:10238000232A1501113B00193601233600CD5C01CB
:1023900035E5CD5C0133E5CD1E22D1D1CD5C013DCB
:1023A0007CB5CADF23210600E5CD2122D1CD5C0119
:1023B000412929E52A150111570619D1195E23561D
:1023C00013722B73D52A150111330019D17323729F
:1023D000CD5C0135E5CD5C0133E5CD1E22D1D1CDFB
:1023E0005C0135E5CD5C0133110200EBCDCB02D1B0
:1023F000191101007CA2677DA36FE5CD5C0141113D
:102400001600EBCDCB02110200CD3F02D119E5CD74
:102410002122D1CD5C01412929E52A150111570658
:1024200019D1197E23666F111300CDF901DAF62454
:10243000CD5C01412929E52A150111570619D11949
:102440007E23666F111700CDF901D2F624CD5C0111
:10245000412929E52A150111570619D11923237E8F
:1024600023666FE52A150111350019D17323722AED
:102470001501113300193603233600CD5C013311E9
:10248000FFFFCDF901DAF624CD5C0135E5CD5C0125
:1024900033D1197CB7FAF624CD5C01412929E52A0C
:1024A000150111570619D1197E23666F11EDFF1919
:1024B00011A200CD6B02E52A150111D90219D1191B
:1024C000E5CD5C01412929E52A150111570619D1ED
:1024D0001923237E23666FE5CD5C0133D11929D101
:1024E00019AF7723772A1501113300195E23561B84
:1024F000722B73C37B24CD5C01312B7CB5CA0B25B9
:10250000CD5C01312B2B7CB5C20D25C1C9CD5C0141
:102510004111F5FF19E52A150111330019D1732373
:1025200072CD5C01337CB7FA5D25CD5C013329297E
:10253000E52A150111570619D1197E23666F7CB55E
:10254000CA4525C1C92A150111330019E57E236644
:102550006F11F5FF19EBE1732372C32125CD5C01E7
:10256000412929E52A150111570619D11923237E7E
:1025700023666FE5CD4D013507E5CD5C014BD1CD2F
:10258000FA0219D1CDFA01DA8426CD5C014129295C
:10259000E52A150111570619D11923237E23666FE9
:1025A000E5CD4D013507232323E5CD5C014BD11942
:1025B000D1CDFA01D28426CD5C01412929E52A1525
:1025C0000111570619D1197E23666F111400CD042D
:1025D00002DA84262A150111330019AF772377CD4B
:1025E0005C0133E5CD5C0149D1CDFA01D28426CD21
:1025F0005C01332929E52A1501113D0719D1197EFE
:1026000023666F7CB5C27326CD5C01332929E52A88
:102610001501113D0719D119E5CD5C01412929E5C5
:102620002A150111570619D1197E23666FEBE17344
:102630002372CD5C01332929E52A1501113D0719C3
:10264000D1192323E5CD5C01412929E52A15011182
:10265000570619D11923237E23666F2323EBE173D9
:1026600023722A1501114700195E235613722B732A
:10267000C384262A1501113300195E235613722BC9
:1026800073C3DF25C1C9C39826C3CA2BC3DF2BC3BD
:102690000831C33709C3C837C5CD8926210A00E5EB
:1026A000210A00E5CD8C26D1D1CD5C014F11080067
:1026B000CD0402D2C0262A150111DA0519C3D42689
:1026C000CD5C014F110F00CD6B02E52A150111629F
:1026D0000519D119E5215B27E52A150111F3051923
:1026E000E5CD8F26D1D1D12A150111F30519E5CDFC
:1026F0009226D12A1501114F00195E235613722B11
:10270000731BD5216F27E52A150111F30519E5CDB6
:102710008F26D1D1D12A150111F30519E5CD9226C5
:10272000D1210A00E5210C00E5CD8C26D1D1CD5C6C
:10273000014FE5218A27E52A150111F30519E5CD99
:102740008F26D1D1D12A150111F30519E5CD922695
:10275000D1213200E5CD9526D1C1C9436F6E677294
:102760006174756C6174696F6E7320257320002D20
:1027700020796F75206861766520776F6E206174AF
:10278000206C6576656C202564004E6F77206C6543
:102790007427732073656520686F7720676F6F6497
:1027A00020796F7520617265206174206C65766593
:1027B0006C20256400C3BB27C3F937C5210000394D
:1027C000F9444DCD900104E5210400E5CDB827D1B1
:1027D000D1C1C9C1C9C52A150111330019AF772369
:1027E00077CD5C0133110A00CDF901D26128CD5CAF
:1027F0000133E52A150111E90519D119E5CD5C016F
:1028000033EB2A1501196EEBE173CD5C0133E52A38
:10281000150111E90519D1196E7DFEFFC22D28CDD4
:102820005C0133E52A1501112A0019D173CD5C0131
:1028300033E52A150111E90519D1196E7DFEFEC295
:102840005028CD5C0133E52A1501112B0019D173F5
:102850002A1501113300195E235613722B73C3E13D
:1028600027C1C9C36F28C3CA2BC3DF2BC33709C510
:10287000CD6628210000E5210000E5CD6928D1D1F1
:1028800021FA28E5CD6C28D1212429E5CD6C28D169
:10289000215A29E5CD6C28D1218A29E5CD6C28D192
:1028A00021BB29E5CD6C28D121E129E5CD6C28D1CA
:1028B00021182AE5CD6C28D1213E2AE5CD6C28D1FE
:1028C000216E2AE5CD6C28D1219C2AE5CD6C28D13A
:1028D00021D12AE5CD6C28D1210C2BE5CD6C28D156
:1028E00021482BE5CD6C28D121742BE5CD6C28D166
:1028F00021A72BE5CD6C28D1C1C9417474656E74D4
:10290000696F6E3A20416C69656E20696E766173FD
:10291000696F6E20696E2070726F677265737321C4
:102920000D0A0A00202020202020202054797065E4
:102930003A2020203C2C3E2020202020746F206D47
:102940006F766520746865206C61736572206261C2
:102950007365206C6566740D0A00202020202020FD
:10296000202020202020202020203C7A3E202020D3
:10297000202061732061626F76652C20666F722063
:102980006C6566746965730D0A0020202020202084
:10299000202020202020202020203C2E3E202020EF
:1029A0002020746F2068616C7420746865206C61ED
:1029B00073657220626173650D0A0020202020205B
:1029C00020202020202020202020203C783E202075
:1029D000202020666F72206C6566746965730D0A2D
:1029E0000020202020202020202020202020202007
:1029F000203C2F3E2020202020746F206D6F7665B4
:102A000020746865206C6173657220626173652053
:102A100072696768740D0A00202020202020202081
:102A200020202020202020203C633E202020202029
:102A3000666F72206C6566746965730D0A002020EC
:102A400020202020202020202020202020203C7317
:102A5000706163653E20746F206669726520612035
:102A60006C61736572206265616D0D0A0A00002059
:102A700020202020202020202020202020203C3129
:102A80003E2020202020746F20706C61792022422B
:102A90006C6F6F6462617468220D0A002020202030
:102AA0002020202020202020202020203C313E20DB
:102AB0002020202053746172742047616D650D0AD7
:102AC0000000000000000000000000000000000006
:102AD0000000202020202020202020202020202036
:102AE000203C333E2020202020746F20706C6179C0
:102AF000202254686520416C69656E73207374727E
:102B0000696B65206261636B220D0A000020202042
:102B10002020202020202020202020203C343E2067
:102B200020202020746F20706C61792022496E76FD
:102B3000697369626C6520416C69656E20576561D7
:102B400073656C73220D0A000020202020202020B5
:102B500020202020202020203C353E202020202026
:102B6000746F20706C617920224B6C696E6B65729A
:102B7000220D0A00002020202020202020202020BC
:102B8000202020203C363E2020202020746F207002
:102B90006C6179202254686520426C61636B204827
:102BA0006F6C65220D0A002020202020202020208C
:102BB000202020202020203C713E20202020207436
:102BC0006F20717569740D0A0A00C3D02BC33709D1
:102BD000C52A1501111E0019E5CDCD2BD1C1C9C3E0
:102BE000E52BC33709C521000039F9444DCD7701E4
:102BF0002A2600E52A150111E90519D119E5CD901C
:102C00000104E5CD770128D1AF6719EBE173CD77EA
:102C1000012B2600E52A150111E90519D119E5CD89
:102C2000900106E5CD770129D1AF6719EBE1732A51
:102C3000150111E90519E5CDE22BD1C1C9C3432C1A
:102C4000C33709C521000039F9444DCD5C0131116C
:102C50000400CDF901DA772CCD9001047CB7FA7726
:102C60002CCD900104110500CD0402DA772C21044B
:102C700000093606233600CD9001043E00BDC28710
:102C80002C3E00BCCAEA2C3E01BDC2932C3E00BCC7
:102C9000CAF52C3E02BDC29F2C3E00BCCA002D3E90
:102CA00003BDC2AB2C3E00BCCA0B2D3E04BDC2B757
:102CB0002C3E00BCCA162D3E05BDC2C32C3E00BC36
:102CC000CA212D3E06BDC2CF2C3E00BCCA2C2D3ED3
:102CD00007BDC2DB2C3E00BCCA372D3E08BDC2E793
:102CE0002C3E00BCCA422DC35D2D215F2DE5CD4099
:102CF0002CD1C35D2D21652DE5CD402CD1C35D2D9B
:102D0000216B2DE5CD402CD1C35D2D21712DE5CD5D
:102D1000402CD1C35D2D21772DE5CD402CD1C35D55
:102D20002D217D2DE5CD402CD1C35D2D21832DE5B9
:102D3000CD402CD1C35D2D21892DE5CD402CD1C3B3
:102D40005D2DCD5C0131110500CDF901DA522DC3A5
:102D50005D2D21912DE5CD402CD1C35D2DC1C92024
:102D60004FD84F20002058CF582000202FCF5C2074
:102D700000205C4F2F200020838083200020888348
:102D8000842000202020202000208B838083872027
:102D9000008000C3992DC3F937C5210200E5CD9607
:102DA0002DD17CB5CABE2D210300E5CD962DD1E5F0
:102DB0002A1501112C0019D173210100C1C921006C
:102DC00000C1C9C1C9C5CD77012C2600C1C9C1C97F
:102DD000C3E22DC3DF2BC33D2CC33709C3C837C3A0
:102DE0003437C521FEFF39F9444DCD5C0131110561
:102DF00000CDF901DABA2ECD5C0131EB60697323A5
:102E0000722A15011131001936032336002A1501E3
:102E100011330019AF772377CD5C0133110300CD57
:102E20000402DAAA2E210000E5CD5C013311130063
:102E300019E5CDD32DD1D12A150111350019AF7760
:102E40002377CD5C0135115000CDF901D2992ECDFB
:102E50005C013311A200CD6B02E52A150111D902E4
:102E600019D119E5CD5C013529D1197E23666F2B67
:102E70007CB5C2802E210800E5CDD62DD1C3882E89
:102E800021E32FE5CDD92DD12A1501113500195E89
:102E9000235613722B73C3422E2A150111330019C6
:102EA0005E235613722B73C3182ECD900100E52AB2
:102EB000150111310019D1732372CD5C0131110458
:102EC00000CDF901DABE2FCD5C0131EB60697323CF
:102ED000722A15011131001936032336002A150113
:102EE00011330019AF772377CD5C0133113700CD53
:102EF000F901D2A62FCD5C01332929E52A1501114C
:102F0000570619D1197E23666F7CB5CA952FCD5C03
:102F100001332929E52A150111570619D11923234F
:102F20007E23666FE5CD5C01332929E52A15011161
:102F3000570619D1197E23666FE5CDD32DD1D1CD9A
:102F40005C01332929E52A150111570619D11923E6
:102F5000237E23666FE5CD5C01332929E52A15011F
:102F600011570619D1197E23666F110200EBCDCBE4
:102F700002D1191101007CA2677DA36FE5CD5C0130
:102F800033111600EBCDCB02110200CD3F02D11957
:102F9000E5CDD62DD12A1501113300195E23561324
:102FA000722B73C3E82ECD900100E52A1501113173
:102FB0000019D1732372213200E5CDDC2DD121001F
:102FC00000E5211600E5CDD32DD1D12A1501110A36
:102FD0000019E5CDD92DD1CDDF2DEB21020039F936
:102FE000EBC1C92000C3F12FC3DF2BC30831C337A6
:102FF00009C5211000E5210000E5CDE82FD1D1CD94
:103000005C012DE5212630E52A150111F30519E5AE
:10301000CDEB2FD1D1D12A150111F30519E5CDEE54
:103020002FD1C1C9C1C92564202000C33430C3DFFA
:103030002BC3B108C5210000E5211700E5CD2E30D6
:10304000D1D1CD3130C1C9C521000039F9444D215C
:103050000400096E2600113000CDF901CDAF01DA70
:103060007230210400096E2600113900CD0402CD12
:10307000AF01C1C9C1C9C37C30C32731C521FEFF1F
:1030800039F9444D21080009E5CD7930D1EB60696B
:10309000732372210880CDE501CAB73021060009EB
:1030A0005E23561313722B731B1BD5CD900100EBBF
:1030B000E1732372C38430EB21020039F9EBC1C9FB
:1030C000C521FEFF39F9444DCD900106EB606973CF
:1030D0002372210600095E235613722B731BD52120
:1030E0000800095E235613722B731BEB6EEBE17322
:1030F0007BB7CAF830C3D230CD900100C3FF30EBAC
:1031000021020039F9EBC1C9C30E31C39131C52188
:10311000000039F9444D21060009E5CD900104E590
:10312000CD0B31D1D1C1C9C32D31C30035C521FE6D
:10313000FF39F9444DCD9001067E23666F6E7DB751
:10314000C24931210880C38831CD9001067E2366B3
:103150006FE5CD2A31D1EB6069732372CD90010602
:103160007E23666F6E7DB7CA8131CD9001065E23E6
:103170005613722B731BEB6E7DFE2CCA8131C35C20
:1031800031CD900100C38831EB21020039F9EBC148
:10319000C9C3A031C3C035C34730C36A36C3CD36B7
:1031A000C52168FF39F9444D219E00095E2356135D
:1031B00013722B731B1BEB7E23666FEB210400093C
:1031C000732372CD90019EEB219600097323722127
:1031D0000400095E235613722B731BEB6EEB6069C0
:1031E000737BB7CAF13460696E7DFE25C2DB342182
:1031F000060009EB218D0009732372219400093622
:1032000006233600219100091E0073218F000973E7
:103210002190000973CD9001046E7DFE2DC23032E5
:10322000210400095E235613722B73219000093488
:10323000CD9001046E7DFE30C240322191000934F0
:10324000CD9001046E2600E5CD9731D17DB7CA5DE2
:103250003221040009E5CD9A31D1C3603221010049
:10326000EB21920009732372210400095E23561397
:10327000722B731BEB6EEB6069737BFE2EC2A83260
:1032800021040009E5CD9A31D1EB21940009732383
:1032900072218F000934210400095E235613722B1A
:1032A000731BEB6EEB60697360696E2600E5CD9D64
:1032B00031D17DFE44CAD432FE55CA1033FE58CAFD
:1032C0001933FE4FCA2233FE43CA6833FE53CA99EC
:1032D00033C3C534CD9001967E23666F7CB7F21060
:1032E00033218D00095E235613722B731BEB362D91
:1032F000CD900196E5CD9001967E23666FCDFA02C2
:10330000EBE1732372219200095E23561B722B732B
:1033100021010009360AC32833210100093610C3F0
:10332000283321010009360821920009E57E236631
:103330006FE5210100096E2600E5219600095E2354
:10334000561313722B731B1BEB7E23666FE5218DC7
:103350000009E5CD9431D1D1D1D1AF67CDFA0219B1
:10336000EBE1732372C31134218D00095E235613E0
:10337000722B731BD5219600095E23561313722BF3
:10338000731B1BEB7E23666FEBE173219200095EDA
:1033900023561B722B73C31134218F00096E7DB726
:1033A000C2AC332194000936C823360021960009A7
:1033B0005E23561313722B731B1BEB7E23666FEB7E
:1033C00021020009732372CD9001026E7DB7CA11EC
:1033D00034CD9001947CB5CA1134218D00095E234F
:1033E0005613722B731BD5210200095E23561372EC
:1033F0002B731BEB6EEBE173219400095E23561BCC
:10340000722B73219200095E23561B722B73C3C764
:1034100033CD90018D360021060009EB218D000986
:10342000732372219000096E7DB7C2683421920027
:10343000095E23561B722B7313210000CD0502D2A7
:103440006834219C00095E235613722B731BD5210F
:103450009100096E7DB7CA5F34213000C362342108
:103460002000EBE173C32D34CD90019CE5218D004C
:10347000095E235613722B731BEB6EEBE1737BB764
:10348000CA9134219C00095E235613722B73C368C2
:1034900034219000096E7DB7CAC234219200095EC2
:1034A00023561B722B7313210000CD0502D2C234A8
:1034B000219C00095E235613722B731BEB3620C32D
:1034C0009B34C3D834219C00095E235613722B739E
:1034D0001BD560696EEBE173C3EE34219C00095E7D
:1034E000235613722B731BD560696EEBE173C3CF48
:1034F00031CD90019C3600EB21980039F9EBC1C920
:10350000C30635C34730C521FBFF39F9444D606917
:10351000AF772377210300093601233600CD9001D0
:10352000096EEB21020009737BFE09CA39352102BD
:1035300000096E7DFE20C24735210900095E235631
:1035400013722B73C31D35210200096E7DFE2DC23F
:1035500066352103000936FF2336FF210900095E85
:10356000235613722B73210900095E235613722B05
:10357000731BEB6EEB21020009731600D5CD0335EA
:10358000D17CB5CAA735CD900100110A00CD3F020C
:10359000E5210200096ED1AF671911D0FF19EB6068
:1035A00069732372C36635CD900103E5CD900100A8
:1035B000D1CD3F02C3B735EB21050039F9EBC1C9C5
:1035C000C3C635C3C035C521FFFF39F9444DCD9081
:1035D0000107E5CD900109D1CDEC01D21636CD9091
:1035E00001055E235613722B731BD5CD9001071175
:1035F0000A00CDEB01D20336CD900107113000193E
:10360000C30B36CD90010711370019EBE17321018F
:10361000002600C36136CD900109E5CD900107E594
:10362000CD900109D1CD8902E5CD900105E5CDC34D
:1036300035D1D1D1EB606973CD900109E5CD900111
:1036400007E5CD900109D1CD2902E5CD900105E531
:10365000CDC335D1D1D160696E2600232600C36168
:1036600036EB21010039F9EBC1C9C37036C34730CD
:10367000C521FEFF39F9444D6069AF772377CD90BE
:1036800001067E23666F6E2600E5CD6D36D17DB7CF
:10369000CABD36CD900100110A00CD3F02E5CD90A4
:1036A00001065E235613722B731BEB6ED1AF6719A5
:1036B00011D0FF19EB6069732372C37E36CD900180
:1036C00000C3C436EB21020039F9EBC1C9C3D336BC
:1036D000C30537C521000039F9444D210400096EA6
:1036E0002600E5CDD036D17CB5CAFA3621040009D2
:1036F0006E260011E0FF19C3FF36210400096E2673
:1037000000C1C9C1C9C521000039F9444D210400D7
:10371000096E2600116100CDF901CDAF01DA303715
:10372000210400096E2600117A00CD0402CDAF01FC
:10373000C1C9C1C9C32001CD0A037CB5CA4637221D
:103740009705229905C9117C37C50E09CD050021C1
:10375000BDBDE50E0BCD0500E1232323E601CA52D2
:10376000372297052299050E021E0DCD05000E0287
:103770001E0ACD05000E01CD0500C1C9576169744F
:10378000206120666577207365636F6E64732C20FB
:10379000616E64207479706520612043523A202460
:1037A0002A9705EB3E48A3CAAE37EAAE37372A99C7
:1037B000057C17677D176F2299057A17677B176F4E
:1037C0002297057CE67F67C9CD0A03C5232B7CB50C
:1037D000C2D537C1C91110271B7AB3C2D837E50E3D
:1037E0000BCD0500E601E1CACD37E50E01CD0500A0
:1037F000FE03CA0000E1C3CD37CD3703C52A01005F
:103800002B2B2B3A9F054787805F160019E52AA1CD
:1038100005444D211838E3E96F2600C1C91B3DFF5F
:10382000FE000000000000007935000000000000EC
:1038300000007835000000000000001A00000000C1
:10384000000000000020201A1A1A1A1A1A1A1A1A4E
:103850001A1A1A1A1A1A1A1A1A1A1A1A1A1A1A1AC8
:103860001A1A1A1A1A1A1A1A1A1A1A1A1A1A1A1AB8
:103870001A1A1A1A1A1A1A1A1A1A1A1A1A1A1A00C2
:103880003C424F4F4D213E20070020202020202089
:10389000202000200020002000C39A1BC3DF2BC380
:1038A0003D2CC5CD4D0137077CB5C2A71BC1C92A28
:1038B000150111350719E57E23666FE5CD4D0137FA
:1038C00007D119EBE1732372CD4D013507110100CA
:1038D000CDF901D2E81B2A1501113507193601234C
:1038E00036002A150111370719AF772377C30D1C4E
:1038F000CD4D013507114800CD0402D20D1C2A150B
:1039000000000000000000000000000000000000B7
:1039100000000000000000000000000000000000A7
:103920000000000000000000000000000000000097
:103930000000000000000000000000000000000087
:10410000F5C5D53A2D413CE603322D415F1600211D
:104110002E41195E06083E64D3504B0D20FDEEFE85
:1041200010F63E80D350D1C1F12A1501C9FF48587D
:104130006878F5C5D506501E303E40D3504B0D2053
:10414000FDEE801C10F53E80D350D1C1F12A15013F
:10415000C9F5C5D5066016A51E307A0F3002EEB837
:1041600057EE80D3504B0D20FD1C10EE3E80D350F7
:07417000D1C1F121771BC949
:00000001FF
